:020000040800F2
:10000000000900200D020008110200081302000878
:10001000150200081702000819020008000000007D
:100020000000000000000000000000001B020008AB
:100030001D020008000000001F0200082102000845
:1000400023020008230200082302000823020008FC
:100050002302000823020008FD0300080D05000824
:10006000310500085505000879050008230200083D
:1000700023020008230200082302000823020008CC
:100080002302000823020008B5020008230200082A
:100090002302000823020008230200089D0500082F
:1000A00023020008AD070008230200081907000812
:1000B000D1070008A1080008590900082302000818
:1000C0002302000823020008230200086506000836
:1000D000A1060008110D0008590D0008A10D000827
:1000E000210400082302000823020008230200085C
:1000F000E90C000823020008450C00088D030008E5
:100100002302000823020008110A0008DD06000887
:100110002302000823020008C90A0008810B000816
:10012000230200082302000823020008230200081B
:1001300000F002F800F05AF80AA090E8000C82449F
:100140008344AAF10107DA4501D100F04FF8AFF27C
:10015000090EBAE80F0013F0010F18BFFB1A43F0A5
:100160000103184704470000244700000A444FF0E9
:10017000000C10F8013B13F0070408BF10F8014B06
:100180001D1108BF10F8015B641E05D010F8016B4B
:10019000641E01F8016BF9D113F0080F1EBF10F8AF
:1001A000014BAD1C0C1B09D16D1E58BF01F801CBD2
:1001B000FAD505E014F8016B01F8016B6D1EF9D555
:1001C0009142D6D37047000000230024002500266A
:1001D000103A28BF78C1FBD8520728BF30C148BFAA
:1001E0000B6070471FB51FBD10B510BD00F02BF898
:1001F0001146FFF7F7FF03F00BFA00F049F803B4DC
:10020000FFF7F2FF03BC00F04DF80000084800477C
:10021000FEE7FEE7FEE7FEE7FEE7FEE7FEE7FEE7B6
:10022000FEE7FEE703480449024A044B704700001A
:100230003101000800050020000900200005002011
:10024000704770477047754600F028F8AE460500C5
:100250006946534620F00700854618B020B5FFF7E1
:10026000E1FFBDE820404FF000064FF000074FF0DF
:1002700000084FF0000B21F00701AC46ACE8C009C4
:10028000ACE8C009ACE8C009ACE8C0098D467047CD
:100290000446AFF300802046FFF7B1FF00487047E7
:1002A0009C04002001491820ABBEFEE72600020096
:1002B0007047000010B52D48006800F0010048B1FB
:1002C0000221002000F040FE2948006810B12848B3
:1002D000006880472548006800F0020048B100210E
:1002E000084600F031FE2348006810B1214800683C
:1002F00080471E48006800F0040048B1012100203A
:1003000000F022FE1C48006810B11B4800688047BE
:100310001A48006800F0010048B10221012000F0F5
:1003200013FE1748006810B115480068804713484D
:10033000006800F0020048B10021012000F004FE36
:100340001048006810B10F48006880470B480068EB
:1003500000F0040048B10121084600F0F5FD0A480C
:10036000006810B108480068804710BD00240140B3
:10037000A0000020980000209C00002000280140E0
:10038000AC000020A4000020A800002010B51748F1
:10039000006800F0010048B10221084600F0D4FDD9
:1003A0001348006810B11248006880470F48006881
:1003B00000F0020048B10021022000F0C5FD0D4808
:1003C000006810B10B48006880470848006800F0DA
:1003D000040048B10121022000F0B6FD0648006883
:1003E00010B105480068804710BD0000003C014086
:1003F000B8000020B0000020B400002010B506486E
:10040000006810B10448006880470448006840F064
:1004100001000249086010BD2C00002014040140B6
:1004200010B53348006800F4806058B13148006866
:1004300010B13048006880472D48006840F4806063
:100440002B4908602A48006800F4006058B12A4827
:10045000006810B12848006880472548006840F4CB
:100460000060234908602248006800F4805058B1B9
:100470002248006810B12148006880471C48006885
:1004800040F480501A4908601948006800F4005090
:1004900058B11B48006810B11948006880471448DB
:1004A000006840F40050124908601148006800F4E8
:1004B000804058B11348006810B112480068804766
:1004C0000B48006840F4804009490860084800680B
:1004D00000F4004058B10C48006810B10A480068A8
:1004E00080470348006840F400400149086010BD9F
:1004F0001404014054000020580000205C0000203B
:1005000060000020640000206800002010B506484C
:10051000006810B10448006880470448006840F053
:1005200002000249086010BD3000002014040140A0
:1005300010B50648006810B10448006880470448B8
:10054000006840F004000249086010BD340000203B
:100550001404014010B50648006810B10448006852
:1005600080470448006840F008000249086010BD58
:10057000380000201404014010B50648006810B18E
:100580000448006880470448006840F010000249B1
:10059000086010BD3C0000201404014010B52B4839
:1005A000006800F0200058B12948006810B12848C0
:1005B000006880472548006840F020002349086013
:1005C0002248006800F0400058B12248006810B18D
:1005D0002048006880471D48006840F040001B49E3
:1005E00008601A48006800F0800058B11A48006896
:1005F00010B11948006880471448006840F0800036
:10060000124908601148006800F4807058B113481E
:10061000006810B11148006880470C48006840F439
:1006200080700A4908600948006800F4007058B1F9
:100630000B48006810B10A4800688047034800680A
:1006400040F400700149086010BD0000140401402E
:100650004000002044000020480000204C00002002
:100660005000002010B50B48008900F0010028B1AF
:100670000948006810B108480068804705480089AB
:1006800000F0020028B10548006810B10348006876
:10069000804710BD00300140D4000020D800002069
:1006A00010B50B48008800F0010028B10948006827
:1006B00010B10848006880470548008800F0020033
:1006C00028B10548006810B103480068804710BD94
:1006D00008380040DC000020E000002010B50B4886
:1006E000008800F0010028B10948006810B10848EE
:1006F000006880470548008800F0020028B10548DE
:10070000006810B103480068804710BD083C0040F5
:10071000E4000020E800002010B52248008800F026
:10072000020058B12048006810B11F49086880478E
:100730001C48008820F002001A49088019480088E7
:1007400000F0040058B11848406810B116494868D4
:1007500080471448008820F004001249088011489E
:10076000008800F0080058B10F48806810B10E49A9
:10077000886880470B48008820F0080009490880F5
:100780000848008800F0100058B10748C06810B150
:100790000549C86880470348008820F010000149D7
:1007A000088010BD102C01405401002010B50648EF
:1007B000006910B10449086980470448008820F0A6
:1007C00001000249088010BD54010020102C014096
:1007D00010B54FF08040008A00F0010068B12F484A
:1007E000406A10B12D49486A80474FF08040008A26
:1007F00020F001004FF0804108824FF08040008AD5
:1008000000F0020068B12548406910B123494869E9
:1008100080474FF08040008A20F002004FF0804176
:1008200008824FF08040008A00F0040068B11B4845
:10083000806910B11949886980474FF08040008A6B
:1008400020F004004FF0804108824FF08040008A81
:1008500000F0080068B11148C06910B10F49C869BB
:1008600080474FF08040008A20F008004FF0804120
:1008700008824FF08040008A00F0100068B10748FD
:10088000006A10B10549086A80474FF08040008A2D
:1008900020F010004FF08041088210BD540100206C
:1008A00010B52B48008800F0010058B12948806B32
:1008B00010B12849886B80472548008820F0010046
:1008C000234908802248008800F0020058B12148DE
:1008D000806A10B11F49886A80471D48008820F04F
:1008E00002001B4908801A48008800F0040058B133
:1008F0001848C06A10B11749C86A80471448008870
:1009000020F00400124908801148008800F0080017
:1009100058B11048006B10B10E49086B80470C4865
:10092000008820F008000A4908800948008800F083
:10093000100058B10748406B10B10649486B80471A
:100940000348008820F010000149088010BD000015
:10095000100400405401002010B52B48008800F01E
:10096000010058B12948C06C10B12849C86C8047B3
:100970002548008820F0010023490880224800888B
:1009800000F0020058B12148C06B10B11F49C86B7C
:1009900080471D48008820F002001B4908801A4843
:1009A000008800F0040058B11848006C10B11749D5
:1009B000086C80471448008820F004001249088021
:1009C0001148008800F0080058B11048406C10B180
:1009D0000E49486C80470C48008820F008000A49FE
:1009E00008800948008800F0100058B10748806C62
:1009F00010B10649886C80470348008820F0100039
:100A00000149088010BD000010080040540100207A
:100A100010B52B48008800F0010058B12948006E3D
:100A200010B12849086E80472548008820F0010051
:100A3000234908802248008800F0020058B121486C
:100A4000006D10B11F49086D80471D48008820F0D7
:100A500002001B4908801A48008800F0040058B1C1
:100A60001848406D10B11749486D804714480088F8
:100A700020F00400124908801148008800F00800A6
:100A800058B11048806D10B10E49886D80470C48F0
:100A9000008820F008000A4908800948008800F012
:100AA000100058B10748C06D10B10649C86D8047A5
:100AB0000348008820F010000149088010BD0000A4
:100AC000100C00405401002010B52B48008A00F0A3
:100AD000010058B12948406F10B12849486F80473C
:100AE0002548008A20F00100234908822248008A14
:100AF00000F0020058B12148406E10B11F49486E05
:100B000080471D48008A20F002001B4908821A48CD
:100B1000008A00F0040058B11848806E10B11749DF
:100B2000886E80471448008A20F004001249088229
:100B30001148008A00F0080058B11048C06E10B18A
:100B40000E49C86E80470C48008A20F008000A4908
:100B500008820948008A00F0100058B10748006F69
:100B600010B10649086F80470348008A20F0100042
:100B70000149088210BD000000100040540100200F
:100B800010B52E48008800F0010068B12C48D0F85C
:100B9000880018B12A49D1F8880080472748008882
:100BA00020F00100254908804FF08040008A00F0C5
:100BB000020058B12248806F10B12149886F8047E8
:100BC0001E48008820F002001C4908801B4800884D
:100BD00000F0040058B11A48C06F10B11849C86F2E
:100BE00080471648008820F0040014490880134804
:100BF000008800F0080068B11148D0F8800018B1F2
:100C00000F49D1F8800080470C48008820F0080088
:100C10000A4908800948008800F0100068B10848B7
:100C2000D0F8840018B10649D1F884008047034801
:100C3000008820F010000149088010BD1014004009
:100C40005401002010B52648008800F0020068B169
:100C50002448D0F88C0018B12249D1F88C00804784
:100C60001F48008820F002001D4908801C480088A9
:100C700000F0040068B11B48D0F8900018B1194981
:100C8000D1F8900080471648008820F004001449ED
:100C900008801348008800F0080068B11148D0F8B7
:100CA000940018B10F49D1F8940080470C4800888F
:100CB00020F008000A4908800948008800F0100068
:100CC00068B10848D0F8980018B10649D1F89800E2
:100CD00080470348008820F010000149088010BDBB
:100CE000103401405401002010B50748D0F89C0092
:100CF00018B10549D1F89C0080470448008820F0CD
:100D000001000249088010BD540100201034014048
:100D100070B50024002540F22551002000F040FC71
:100D20000446012C05D10A48006810B10848006843
:100D3000804740F22661002000F032FC0546012D7C
:100D400005D10448006810B102480068804770BDB2
:100D5000700000207400002070B50024002540F2CF
:100D60002551012000F01CFC0446012C05D10A4845
:100D7000006810B108480068804740F226610120F1
:100D800000F00EFC0546012D05D10448006810B1A5
:100D900002480068804770BD780000207C00002079
:100DA00070B50024002540F22551022000F0F8FB28
:100DB0000446012C05D10A48006810B108480068B3
:100DC000804740F22661022000F0EAFB0546012D33
:100DD00005D10448006810B102480068804770BD22
:100DE000800000208400002010B501F05FFE01F0BB
:100DF0002FFE40F6C41002F0D9F810BD1CB500203B
:100E000000900190144800780A281FDD0020124944
:100E10000870FC208DF80000002001F03FFE044621
:100E2000200A8DF80100E0B28DF80200012001F0E7
:100E300035FE0446200A8DF80300E0B28DF8040068
:100E400005226946002002F023FB04E002480078F6
:100E5000401C014908701CBD4401002001290AD131
:100E60000A4A52F82020926842F00102074B53F8D8
:100E700020309A6009E0054A52F82020926822F05A
:100E80000102024B53F820309A6070477047000807
:100E900030B509291EDD2B4B53F82030DB68A1F15A
:100EA0000A0404EB44050724AC40A343254C54F842
:100EB0002040E360234B53F82030DB68A1F10A04A3
:100EC00004EB440402FA04F423431E4C54F820407B
:100ED000E36019E01B4B53F820301B6901EB41051F
:100EE0000724AC40A343174C54F820402361154B12
:100EF00053F820301B6901EB410402FA04F4234348
:100F0000104C54F8204023610E4B53F820305B6B9B
:100F100023F01F030B4C54F820406363094B53F834
:100F200020305B6B0B43074C54F820406363054B48
:100F300053F820309B6843F4A003024C54F820403F
:100F4000A36030BD7047000801290AD1104A52F849
:100F50002020126822F004020D4B53F820301A6052
:100F600015E051B90A4A52F82020126822F0020214
:100F7000074B53F820301A6009E0054A52F8202048
:100F8000126822F00102024B53F820301A607047B9
:100F9000704700080FB5022824DA6449896900F116
:100FA0000902012393409943604A9161114689697E
:100FB00000F109020123934019435C4A91611146F3
:100FC000C96800F10902012393401943574AD160CF
:100FD0001146C96800F10902012393409943534A1D
:100FE000D16014E05149896921F400414F4A91616F
:100FF0001146896941F4004191611146C96841F483
:101000000041D1601146C96821F40041D1604749CF
:10101000496821F44041454A51601146496841F40C
:1010200000415160424951F82010496821F4702173
:101030003F4A52F8202051603D4951F8201049683C
:101040009DF8042041EA0241394A52F820205160BB
:10105000374951F82010496821F48071344A52F818
:1010600020205160324951F8201049689DF8052030
:1010700041EA02212E4A52F8202051602C4951F8B1
:101080002010896821F00201294A52F8202091603D
:10109000274951F8201089689DF8062041EA42014D
:1010A000234A52F820209160214951F82010896884
:1010B00021F460211E4A52F8202091601C4951F809
:1010C00020108968029A1143194A52F82020916031
:1010D000174951F82010896821F40061144A52F828
:1010E00020209160124951F8201089689DF80C2049
:1010F00041EAC2210E4A52F8202091600C4951F871
:101100002010C96A21F47001094A52F82020D162E6
:10111000074951F82010CA6A9DF80D10491E42EA8D
:101120000151034A52F82020D1620FBD0010024045
:101130007047000870B91AB909B3164B196028E056
:10114000012A03D1D9B1144B196022E0B9B1134B74
:1011500019601EE001280ED11AB981B1104B196037
:1011600017E0012A03D151B10E4B196011E031B1E2
:101170000D4B19600DE01AB909B10C4B196008E06C
:10118000012A03D129B10A4B196002E009B1094BC8
:1011900019607047980000209C000020A0000020EB
:1011A000A4000020A8000020AC000020B000002017
:1011B000B4000020B800002030B5012A0CD10D4B3E
:1011C00053F820305B684C1D0125A5402B43094C8A
:1011D00054F8204063600BE0064B53F820305B6806
:1011E0004C1D0125A540AB43024C54F820406360E0
:1011F00030BD0000704700080146034850F8210048
:10120000C06C80B27047000070470008094951F86F
:101210002010896841F00801064A52F820209160A8
:1012200000BF044951F82010896801F00801002925
:10123000F7D1704770470008094951F820108968B4
:1012400041F00401064A52F82020916000BF044991
:1012500051F82010896801F004010029F7D1704786
:10126000704700087CB504460020019000900025DE
:1012700000F018FD207810B902F0A2FC59E02078A7
:10128000022854D16078012822D02C48006840F40C
:1012900080302A49086000BF28480068002000907C
:1012A000BDF80400401C80B201909DF8000020B9F8
:1012B000BDF80400B0F5A06FEED12048006800F43E
:1012C000003010B10120009025E00020009022E0C5
:1012D0001A48006840F001001849086000BF17482C
:1012E000006800F002000090BDF80400401C80B2CD
:1012F00001909DF8000020B9BDF80400B0F5A06F82
:10130000EDD10E48006800F0020010B101200090FD
:1013100001E0002000909DF80000012809D1A0788C
:10132000074951F8205025B16078A84701E002F044
:10133000A7FC4FF00060034908607CBD001002402C
:101340000847000808ED00E0012913D158B9114AF7
:10135000126822F001020F4B1A601A46126842F01E
:1013600001021A6014E00B4A126842F48032094B01
:101370001A600DE030B9074A126822F00102054BED
:101380001A6005E0034A126822F48032014B1A60A9
:1013900070470000007400400FB40021144AD26965
:1013A00042F00052124BDA61039B059A1A43049BE8
:1013B0001A43019B1A43029B42EA030150B90D4AAA
:1013C00012686FF30C020B4B1A601A4612680A433C
:1013D0001A600AE0074A1268074B1A40054B1A6068
:1013E0001A46126842EA01421A6004B070470000CF
:1013F0000010024000740040FFFF00E068B911B91E
:101400000D4B1A6017E0012903D10B4B1B1D1A600D
:1014100011E0094B08331A600DE019B9064B0C3383
:101420001A6008E0012903D1034B10331A6002E06F
:10143000014B14331A6070470874004000B503462E
:101440006FF0040000F0F6FC0848B3FBF0F0084928
:1014500008700846007800EB4001C1EBC0104FF661
:10146000FF7101EAC0000349088000BD00127A0044
:101470006C0000206E00002001460D4A12884A438D
:101480004FF0E0235A6100229A6101221A6100BFE5
:101490004FF0E022106900F001021AB100F480322E
:1014A000002AF5D000224FF0E0231A619A617047BC
:1014B0006E00002001460D4A12784A434FF0E023A7
:1014C0005A6100229A6101221A6100BF4FF0E022A6
:1014D000106900F001021AB100F48032002AF5D040
:1014E00000224FF0E0231A619A6170476C000020DF
:1014F00000210022164B1B680360164B5B6803F04B
:10150000F0010909144B5A5C0368D3404360114B46
:101510005B6803F4E061090A104B5A5C4368D340EE
:1015200083600C4B5B6803F46051C90A0B4B5A5C37
:101530004368D340C360074B5B6803F44041890BA9
:10154000074B5A5CC368B3FBF2F3036170470000BA
:101550000C0000200010024010000020200000209D
:1015600028000020024621B90C4850F82200808E45
:101570007047012904D1094850F82200008FF7E78D
:10158000022904D1054850F82200808FF0E7034873
:1015900050F82200B0F84000EAE700005047000889
:1015A00070B50246002600240023002540F66A108C
:1015B000814205D1032A01D0042A01D1002070BD47
:1015C000C1F3421501F01F03012000FA03F3012DBE
:1015D00005D1114850F82200808903400CE0022D0B
:1015E00005D10D4850F82200008A034004E00A4863
:1015F00050F82200808A03400C12012000FA04F403
:10160000054850F822000088044013B10CB10126AF
:1016100000E000263046D2E73C4700082DE9F041C3
:101620000024002500210022002600234F4FBF691F
:1016300090F800C00CF1020C4FF0010808FA0CF809
:1016400047EA0807DFF824C1CCF81870477907F09B
:101650000F04477907F010070FB107793C438778EB
:10166000002F3BD00778DFF808C15CF827703B6893
:1016700000212BE0012707FA01F2478807EA02055B
:10168000954222D18A000F2707FA02F6B34304FAE3
:1016900002F73B434779282F0AD101278F4090F862
:1016A00000C0DFF8CC8058F82CC0CCF814700CE0E7
:1016B0004779482F09D101278F4090F800C0DFF803
:1016C000B08058F82CC0CCF81070491C0829D1D330
:1016D0000778DFF89CC05CF827703B604788FF2FD5
:1016E00042D90778DFF888C05CF827707B68002152
:1016F00032E001F108074FF0010C0CFA07F24788BD
:1017000007EA0205954226D18A000F2707FA02F65A
:10171000B34304FA02F73B434779282F0BD101F179
:1017200008070CFA07FC0778DFF8448058F82770A0
:10173000C7F814C00FE04779482F0CD101F1080712
:101740004FF0010C0CFA07FC0778DFF8248058F8FA
:101750002770C7F810C0491C0829CAD30778DFF8DA
:1017600010C05CF827707B60BDE8F081001002407B
:101770002047000802460020044B53F822309B68A3
:101780000B400BB1012000E000207047204700080B
:1017900010B5012A09D10A4B53F820301B690B43BD
:1017A000074C54F82040236108E0054B53F82030E3
:1017B0005B690B43024C54F82040636110BD00008C
:1017C0002047000810B500F073F8012000F098FAE7
:1017D00000F08AF80748047804EBD4714810FFF74A
:1017E00069FE00F073F804480078FFF763FE00F02C
:1017F0005FF810BDBE000020BF00002010B500F053
:1018000057F8012000F07CFA00F07CF807480478D3
:1018100004EBD4714810FFF74DFE00F057F8044870
:101820000078FFF747FE00F043F810BDBE0000202F
:10183000BF0000202DE9F0410546002600240027C6
:10184000002000F05DFA00BF1EE000F031F81448FF
:1018500090F8008008EBD8714810FFF72BFE00F0DD
:1018600035F86006040E0F4801880F480078FFF72E
:1018700081FF0746012F01D1601CC4B20B480078DC
:10188000FFF718FE701CC6B2082EDEDB15B9FFF795
:10189000B5FF01E0FFF796FF2046BDE8F0810000AC
:1018A000BE000020C4000020C2000020C1000020B3
:1018B00010B500220348018803480078FFF768FF4D
:1018C00010BD0000C6000020C300002010B501229A
:1018D0000348018803480078FFF75AFF10BD000055
:1018E000C6000020C300002010B500220348018874
:1018F00003480078FFF74CFF10BD0000C400002033
:10190000C200002010B50122034801880348007876
:10191000FFF73EFF10BD0000C4000020C200002001
:1019200070B504460025012000F0EAF9FFF7C0FF7A
:1019300000BF22E00120B0EBD41F02D1FFF7E2FF8D
:1019400001E0FFF7D1FF6006040E0D48067806EBB4
:10195000D6714810FFF7AEFDFFF7B8FF09480078D1
:10196000FFF7A8FDFFF7A4FF0548067806EBD67140
:101970004810FFF79FFD681CC5B2082DDADB70BD6B
:10198000BE000020BF00002010B50446A0791F490A
:101990000870E0791E490870207A1E490870607A44
:1019A0001D490870A07A1D490870E07A1C4908702A
:1019B00060781C49087020781B490870A0881B4972
:1019C000088060881A49088016480078194908700C
:1019D0001648008848801020487103200871084686
:1019E000FFF71CFE10480078134908701048008863
:1019F000488010204871032008710846FFF70EFE4A
:101A0000FFF780FFFFF762FF10BD0000BC00002061
:101A1000BD000020BE000020BF000020C00000204C
:101A2000C1000020C2000020C3000020C40000202C
:101A3000C6000020C8000020CE00002010B5012004
:101A400000F05EF9FFF742FFFFF75CFF0648007801
:101A5000FFF730FDFFF748FF04480078FFF72AFD45
:101A6000FFF726FF10BD0000BC000020BD000020D5
:101A700010B5012000F044F9FFF736FFFFF718FF1B
:101A800006480078FFF716FDFFF720FF03480078AF
:101A9000FFF710FDFFF736FF10BD0000C00000206B
:101AA00070B500240025002000F02AF9FFF72AFF76
:101AB0000F480078FFF7FEFCFFF708FF0C4800789E
:101AC000FFF7F8FC0B4801880B480078FFF752FE3F
:101AD000054607E0601CC4B2FA2C03DDFFF7C8FF1F
:101AE000002070BD002DF5D1FFF7E2FE0120F8E7E0
:101AF000C1000020C4000020C20000204AF6AA2035
:101B000001490860704700000030004000BF45F206
:101B10005552424B1A60B0F5CD7F0ADA00225A6066
:101B200000EB8003DA00D31702EB9373C3F38F014A
:101B300069E0B0F5CD7F0EDBB0F54D7F0BDA012209
:101B4000364B5A6000EB8003DA00D31702EB537375
:101B5000C3F3CF0157E0B0F54D7F0FDB40F2676272
:101B600090420BDA02222D4B5A6000EB8003DA0020
:101B7000D31702EB1373C3F30F1144E040F2676213
:101B800090420FDB40F6CD4290420BDA0322234B0A
:101B90005A6000EB8003DA00D31702EBD363C3F380
:101BA0004F1130E040F6CD4290420EDB52009042A1
:101BB0000BDA0422194B5A6000EB8003DA00D317CA
:101BC00002EB9363C3F38F111DE041F69A1290422A
:101BD0000EDB520090420BDA0522104B5A6000EBEC
:101BE0008003DA00D31702EB5363C3F3CF110AE08B
:101BF00006220A4B5A6000EB8003DA00D31702EB8F
:101C00001363C3F30F21054A91604AF6AA22034BDE
:101C10001A604CF6CC421A60704700000030004059
:101C200070B5002100230F22C47804B3154C24683A
:101C300004F4E064C4F5E064210AC1F10403CA407D
:101C4000447804FA03F184781440214309010E4CCE
:101C50000678A155047804F01F050124AC400578EE
:101C60006D11AD0005F1E025C5F8004109E00478EB
:101C700004F01F050124AC40044D0678761145F8A8
:101C8000264070BD0CED00E000E400E080E100E0E3
:101C900002490143024A1160704700000000FA0542
:101CA0000CED00E0002013490861C8601420486171
:101CB00000208861C8610846006840F001000860A3
:101CC000084640680C4908400A49486008460068D0
:101CD0000A490840074908600846006820F08270F9
:101CE00008600846406820F4FE0048604FF41F007A
:101CF00088607047001002400000FFF8FFFFF6FE0A
:101D000010B5044634B94820064948710846FFF723
:101D100085FC05E01020034948710846FFF77EFC6A
:101D200010BD0000C800002070B51346002400223A
:101D3000114D55F82050AC8D651C5D43642695FB14
:101D4000F6F5AAB221B90C4D55F82050AA8612E03A
:101D5000012904D1084D55F820502A870BE00229AB
:101D600004D1054D55F82050AA8704E0024D55F8DE
:101D70002050A5F8402070BD5047000810B5A1B90B
:101D80002B4B53F820301B8C23F00203284C54F8C3
:101D900020402384264B53F820301B8C43EA420317
:101DA000234C54F82040238441E0012914D1204BD6
:101DB00053F820301B8C23F020031D4C54F8204096
:101DC00023841B4B53F820301B8C43EA4213184CDE
:101DD00054F8204023842AE0022914D1144B53F8EC
:101DE00020301B8C23F40073114C54F820402384C2
:101DF0000F4B53F820301B8C43EA42230C4C54F811
:101E00002040238413E00A4B53F820301B8C23F42A
:101E10000053074C54F820402384054B53F82030DE
:101E20001B8C43EA4233024C54F82040238410BDFB
:101E300050470008042808D14FF0E021096941F01B
:101E400004014FF0E022116107E04FF0E021096941
:101E500021F004014FF0E022116170471FB50446E4
:101E6000BDF80C20BDF80A10204600F0DBF99DF803
:101E7000050000286BD1DD4850F82400008B20F0CD
:101E80000300DA4951F824100883D84850F8240098
:101E9000008B9DF809100843D44951F82410088399
:101EA000D24850F82400008B20F0F000CF4951F8C0
:101EB00024100883CD4850F82400008BBDF806108C
:101EC00040EA0110C94951F824100883C74850F866
:101ED0002400008B20F00C00C44951F82410088322
:101EE000C24850F82400008B9DF8081040EA810099
:101EF000BE4951F824100883BC4850F82400008CD7
:101F000020F00200B94951F824100884B74850F86D
:101F10002400008C9DF8041040EA4100B34951F8B8
:101F200024100884B14850F82400008C20F00100EF
:101F3000AE4951F824100884AC4850F82400008CB5
:101F400040F00100A94951F8241008844CE19DF8A3
:101F5000050001286CD1A54850F82400008B20F41E
:101F60004070A24951F824100883A04850F824007A
:101F7000008B9DF8091040EA01209C4951F824107B
:101F800008839A4850F82400008B20F47040974949
:101F900051F824100883954850F82400008BBDF8B0
:101FA000061040EA0130914951F8241008838F4807
:101FB00050F82400008B20F440608C4951F8241024
:101FC00008838A4850F82400008B9DF8081040EAE6
:101FD0008120864951F824100883844850F8240051
:101FE000008C20F02000814951F8241008847F489B
:101FF00050F82400008C9DF8041040EA41107B4901
:1020000051F824100884794850F82400008C20F0FE
:102010001000764951F824100884744850F82400C0
:10202000008C40F01000714951F824100884DBE066
:102030009DF8050002286BD16C4850F82400008BF5
:1020400020F00300694951F824100883674850F8CC
:102050002400808B9DF809100843644951F824102E
:102060008883624850F82400008B20F0F0005F491C
:1020700051F8241008835D4850F82400808BBDF887
:10208000061040EA0110594951F824108883574836
:1020900050F82400008B20F00C00544951F8241013
:1020A0000883524850F82400808B9DF8081040EABD
:1020B00081004E4951F8241088834C4850F8240080
:1020C000008C20F40070494951F8241008844748D6
:1020D00050F82400008C9DF8041040EA4120434948
:1020E00051F824100884414850F82400008C20F452
:1020F00080703E4951F8241008843C4850F8240070
:10210000008C40F48070394951F8241008846BE049
:10211000364850F82400008B20F44070334951F8C1
:1021200024100883314850F82400808B9DF8091052
:1021300040EA01202D4951F8241088832B4850F89B
:102140002400008B20F47040284951F824100883A3
:10215000264850F82400808BBDF8061040EA013074
:10216000224951F824108883204850F82400008B1D
:1021700020F440601D4951F8241008831B4850F892
:102180002400808B9DF8081040EA8120174951F8FF
:1021900024108883154850F82400008C20F4005047
:1021A000124951F824100884104850F82400008C7B
:1021B0009DF8041040EA41300C4951F8241008847D
:1021C0000A4850F82400008C20F48050074951F848
:1021D00024100884054850F82400008C40F48050F6
:1021E000024951F8241008841FBD00005047000820
:1021F00001290AD10A4A52F82020128842F001022D
:10220000074B53F820301A8009E0054A52F8202085
:10221000128822F00102024B53F820301A807047D6
:102220005047000830B530B9104B9B6943F4006348
:102230000E4CA36110E0072806D10C4B9B6943F4B8
:1022400000530A4CA36107E0084BDB69441E0125DB
:10225000A5402B43054CE361054B53F820309A858C
:10226000034B53F82030198530BD000000100240A8
:102270005047000810B53AB911B300EB8003164C73
:1022800004EB8303196125E0012A06D1C1B100EBFB
:102290008003114C44F823101CE0022A07D179B1C5
:1022A00000EB80030C4C04EB8303596012E0032A1B
:1022B00007D129B100EB8003074C04EB830399603D
:1022C00008E0042A06D129B100EB8003024C04EB9C
:1022D0008303D96010BD00005401002010B5012A0D
:1022E0000BD10C4B53F820309B8901248C402343A5
:1022F000084C54F82040A3810AE0064B53F82030E4
:102300009B8901248C40A343024C54F82040A381B4
:1023100010BD00005047000817B50446BDF8062060
:10232000BDF804102046FFF77DFF9DF80800002847
:1023300054D1C54850F82400008B20F07000C249E9
:1023400051F824100883C04850F82400008B9DF8F1
:10235000091040EA0110BC4951F824100883BA481A
:1023600050F82400008B20F00800B74951F82410E1
:102370000883B54850F82400008B40F00800B249AB
:1023800051F824100883B04850F82400008C20F045
:102390000200AD4951F824100884AB4850F82400DD
:1023A000008C9DF80A1040EA4100A74951F824101A
:1023B0000884A54850F82400008C20F00100A249B0
:1023C00051F824100884A04850F82400008C40F0F4
:1023D00001009D4951F82410088405E19DF808008A
:1023E000012854D1984850F82400008B20F4E04094
:1023F000954951F824100883934850F82400008B25
:102400009DF8091040EA01308F4951F824100883E3
:102410008D4850F82400008B20F400608A4951F860
:1024200024100883884850F82400008B40F4006092
:10243000854951F824100883834850F82400008C03
:1024400020F02000804951F8241008847E4850F87C
:102450002400008C9DF80A1040EA41107A4951F896
:1024600024100884784850F82400008C20F01000D4
:10247000754951F824100884734850F82400008CE2
:1024800040F01000704951F824100884ACE09DF829
:102490000800022854D16C4850F82400808B20F0AA
:1024A0007000694951F824108883674850F8240067
:1024B000808B9DF8091040EA0110634951F82410FF
:1024C0008883614850F82400808B20F008005E4922
:1024D00051F8241088835C4850F82400808B40F029
:1024E0000800594951F824108883574850F82400AF
:1024F000008C20F40070544951F82410088452488C
:1025000050F82400008C9DF80A1040EA41204E4902
:1025100051F8241008844C4850F82400008C20F412
:102520008070494951F824100884474850F8240025
:10253000008C40F48070444951F82410088453E022
:10254000414850F82400808B20F4E0403E4951F887
:10255000241088833C4850F82400808B9DF8091093
:1025600040EA0130384951F824108883364850F841
:102570002400808B20F40060334951F824108883B4
:10258000314850F82400808B40F400602E4951F807
:10259000241088832C4850F82400008C20F400502C
:1025A000294951F824100884274850F82400008C49
:1025B0009DF80A1040EA4130234951F8241008845C
:1025C000214850F82400008C20F480501E4951F816
:1025D000241008841C4850F82400008C40F48050DB
:1025E000194951F824100884174850F8240000882D
:1025F00020F08000144951F824100880124850F847
:102600002400008840F080000F4951F82410088011
:102610000CB1072C17D10C4850F82400B0F8440036
:1026200020F40040084951F82410A1F8440006485D
:1026300050F82400B0F8440040F40040024951F83A
:102640002410A1F844001EBD5047000801290AD1FA
:102650000A4A52F82020928942F40052074B53F85C
:1026600020309A8109E0054A52F82020928922F40C
:102670000052024B53F820309A8170473C470008C3
:102680002DE9F04F87B004460D464FF000090026B3
:102690000027B04602A8FEF72BFF44B958488069CE
:1026A00040F4804056498861DDF814900AE05448AF
:1026B000C06904F1100101228A4010435049C861E9
:1026C000DDF810904F4850F82400808920F48050A5
:1026D0004C4951F8241088814A4850F824008089D8
:1026E000A9880843474951F824108881454850F883
:1026F0002400808920F4C060424951F82410888168
:10270000404850F824008089298908433D4951F800
:10271000241088813B4850F82400808920F00C0068
:10272000384951F824108881364850F824008089AF
:10273000297B0843334951F824108881314850F8E7
:102740002400008A20F440502E4951F824100882B9
:102750002C4850F82400008AE9880843294951F898
:10276000241008822968080101F06EFE824648465E
:1027700001F06AFE8346514601F084FD80464046E2
:1027800001F042FE86B2304601F05EFE4146019005
:1027900001F03AFF83464FF0834101F069FE824623
:1027A00001F032FE87B24FF6F070384010B10027CA
:1027B000701C86B24FF6FF7000EA0616F01986B25A
:1027C000104850F8240006811CB1012C01D0022CC5
:1027D00013D10C4850F82400808A20F44070094935
:1027E00051F824108882074850F82400808A6989AB
:1027F0000843044951F82410888207B0BDE8F08FDF
:10280000001002403C47000838B901B312B9164B1A
:10281000196027E0154B196024E0012807D1B1B1F8
:1028200012B9134B19601DE0124B19601AE002280F
:1028300007D161B112B9104B196013E00F4B196049
:1028400010E0032807D111B112B90D4B196009E04E
:102850000C4B196006E029B112B90B4B196001E06D
:102860000A4B1960704700007000002074000020BF
:10287000780000207C0000208000002084000020E0
:10288000880000208C000020900000209400002090
:10289000F0B50B4600240025002140F66A16B3422D
:1028A00004D1032801D0042800D1F0BDC3F34214A1
:1028B00003F01F05012606FA05F1012C15D1012AA6
:1028C00009D1214E56F82060B6890E431E4F57F8A5
:1028D0002070BE8136E01C4E56F82060B6898E43CB
:1028E000194F57F82070BE812CE0022C15D1012A17
:1028F00009D1154E56F82060368A0E43124F57F80C
:1029000020703E821EE0104E56F82060368A8E43BC
:102910000D4F57F820703E8214E0012A09D10A4E6B
:1029200056F82060B68A0E43074F57F82070BE82D3
:1029300008E0054E56F82060B68A8E43024F57F8DD
:102940002070BE8200BFB0E73C4700080146034844
:1029500050F821008088C0F3080070473C47000809
:10296000C1F30802024B53F820309A8070470000F0
:102970003C47000810B51C480078022806DB002000
:102980001949087001201949087028E00020FEF755
:1029900033FC1549097801EB4101154A02EB41016D
:1029A000488011480078401C0F490870084600789C
:1029B000022811DA0846007800EB4000134603EBCA
:1029C000400002790846007800EB400013F8101030
:1029D0000020FEF75DFA02E00120044908700021A2
:1029E0000846FEF7B1FA10BD330100203201002085
:1029F000380100200EB500208DF800008DF8010090
:102A00008DF802004FF46020019000208DF808003E
:102A100001208DF8090000209DE80E00FEF7BAFAAB
:102A200001210020FEF71AFA0020FEF7EFFB00203C
:102A3000FEF702FC012200210846FEF7BDFB002242
:102A400002491046FEF776FB0EBD0000752900080E
:102A500010B502240E480078012816D100200C4938
:102A600008700C4908700846007800EB40000A4BDB
:102A700003EB400002790846007800EB400013F8B1
:102A800010100020FEF704FA0024204610BD0000BC
:102A900032010020330100203801002001460248A5
:102AA00030F81100704700003401002010B50022FA
:102AB00011461046FEF780FB00240AE004EB4400B8
:102AC000084901EB40004088074921F81400601CC8
:102AD000C4B2022CF2DB012200210846FEF76CFB97
:102AE00010BD0000380100203401002008B500208E
:102AF0008DF8010002208DF8000005208DF80200FD
:102B00006846FEF7AFFB08BD00B587B04FF48050B4
:102B1000069000200490022005900020029003906F
:102B2000DDE90501CDE90001002002A90EC9FEF78B
:102B300033FC01210020FEF707FC0022114610465D
:102B4000FEF75CFC07B000BD10B504462046FEF75A
:102B500075FC10BD38B500245CE004EB44012F4A3D
:102B600012F82100694600F05BF804EB44002B49A1
:102B700001EB8000007A9DF80010884224D104EB1C
:102B80004400264901EB8000407A00280BDD04EB6D
:102B9000440001EB8000407A401E04EB44011F4AD0
:102BA00002EB8101487204EB44001C4901EB8000F8
:102BB000407A68BB9DF8000004EB4401174A02EB21
:102BC00081014968087023E004EB4400134901EBDC
:102BD0008000807A48B99DF8000004EB44010F4A58
:102BE00002EB81014968087012E004EB44000B49D4
:102BF00001EB8000807A04EB4401084A02EB81017A
:102C000048729DF8000004EB440102EB8101087258
:102C1000601CC4B2032CA0DB38BD0000F40000200F
:102C20002DE9F04106460F464FF0000835460E2DBF
:102C30001DDA05EB4502104B03EB4202518805EB10
:102C4000450203EB42025078FEF794FD044605EB83
:102C50004500094901EB4000407920B9012C01D120
:102C6000002400E001243C704FF0000801E04FF028
:102C700001084046BDE8F0817C4700087CB5054668
:102C80002C460E2C1EDA04EB44000F4911F81000FC
:102C90008DF8050004EB440001EB40004088ADF8DE
:102CA000020004EB440001EB400040788DF8000086
:102CB00004EB440001EB400000798DF80400684605
:102CC000FEF7ACFC7CBD00007C47000810B500247A
:102CD0000BE0074A02EBC40252681178044A12F86A
:102CE000340000F007F8601CC4B2022CF1DB10BD08
:102CF000D047000870B504460D460E2C19DA04EBD7
:102D000044000C4901EB4000407920B9012D01D16C
:102D1000002500E0012504EB4402064B03EB4202D0
:102D2000518804EB440203EB420250782A46FEF736
:102D30002FFD70BD7C4700082DE9F0470746884607
:102D400016464FF00109002508EB0600B0F5807F1C
:102D500003DDA9464846BDE8F087FEF76FFEA020D8
:102D6000FEF7DEFDFEF79CFE04462CB94FF000098D
:102D7000FEF77EFE4846EEE708F0FF00FEF7D0FDC6
:102D8000FEF78EFE04462CB94FF00009FEF770FEE8
:102D90004846E0E7FEF752FEA120FEF7C1FDFEF730
:102DA0007FFE04462CB94FF00009FEF761FE48464D
:102DB000D1E700250FE000F021FC701EA84204D0EE
:102DC0000120FEF737FD785503E00020FEF732FDC5
:102DD0007855681C85B2B542EDDBFEF749FE4FF031
:102DE00001094846B7E72DE9F04780460D461646EB
:102DF0004FF00109002700F001FCA819B0F5807F11
:102E000003DDB9464846BDE8F087FEF717FEA0206F
:102E1000FEF786FDFEF744FE04462CB94FF000098C
:102E2000FEF726FE4846EEE7E8B2FEF779FDFEF72C
:102E300037FE04462CB94FF00009FEF719FE48464C
:102E4000E1E700273AE000F0D9FB18F80700FEF7A9
:102E500067FDFEF725FE04462CB94FF00009FEF78A
:102E600007FE4846CFE7681C85B205F0070018BB8F
:102E7000701EB84220D0FEF7FBFD0A20FEF7FCFAD8
:102E8000FEF7DCFDA020FEF74BFDFEF709FE044631
:102E90002CB94FF00009FEF7EBFD4846B3E7E8B266
:102EA000FEF73EFDFEF7FCFD04462CB94FF000098D
:102EB000FEF7DEFD4846A6E7781C87B2B742C2DBC4
:102EC000FEF7D6FD0A20FEF7D7FA4FF00109484673
:102ED00099E710B504462046FEF70AFB10BD000036
:102EE00001480068704700001C010020014800688C
:102EF000704700002001002010B5002400BF04E04E
:102F00002046FFF7BBFE601CC4B20E2CF8DBFFF7B7
:102F1000DDFE10BD10B5FFF7E9FD4FF47A7000F04B
:102F200071FBFFF7E9FF0C48FFF7D3FF0A49086878
:102F3000FFF70AFE00F076F900F03CF900F08CF99A
:102F4000FFF758FDFFF7E0FD00F008F800F05CF82F
:102F5000002000F0D3F910BDF401002038B54FF483
:102F6000A060FEF795FE00241BE00F4810F8240037
:102F70008DF800000C4800EB8400C0788DF8030049
:102F8000094800EB840040788DF80100064800EB0A
:102F9000840080788DF802006846FEF741FE601CD0
:102FA000C4B2042CE1DB38BD584800082DE9F047D5
:102FB0000446204601F048FA81461149484601F08E
:102FC00061F981464FF08B41484601F051FA824643
:102FD00001F0CAF807464FF066320A4B00F018FFBE
:102FE000054600F0E3FE8146484601F00DFA85B241
:102FF0002A4600210846FEF701FABDE8F0870000E6
:1030000000007A4466660A400EB54FF48050ADF871
:10301000020002208DF800008002ADF804000220BA
:103020008DF8010001218DF80B1004218DF8071097
:1030300002218DF8091004218DF8081004208DF864
:1030400006008DF80A106846FEF79EFC0EBD0000D3
:1030500010B54548007890B900210120FEF782FAAA
:103060004249088001204049087001220021104691
:10307000FEF784FE3E4800683E49086073E03A4827
:103080000078012835D10021FEF76CFA3A49088012
:10309000022035490870002211460120FEF76EFE1D
:1030A000354800883149098888420FDD3248008858
:1030B0002E490988401A2E4909682E4A1268891A31
:1030C000C1EB014108442D4908604CE027480088C5
:1030D0004FF6FF71081A28490988084424490968ED
:1030E000244A1268891AC1EB014108442349086047
:1030F00039E01D480078022835D100210120FEF773
:1031000031FA1F4908800846008818490988884212
:103110000FDD1B48008815490988401A14490968C1
:10312000144A1268891AC1EB014108441549086024
:1031300012E00E4800884FF6FF71081A10490988FE
:1031400001440B4800680B4A1268801A401EC0EB0D
:10315000004008440B4908600020034908700449F6
:1031600008600449086010BD240100202C010020E3
:103170001801002028010020300100201C0100203F
:103180002E0100202001002002480068401C014957
:10319000086070471801002010B50548007808B98C
:1031A000012000E0002002490870FFF78FFD10BDEC
:1031B000ED0000200EB500208DF801008DF8000014
:1031C0000120ADF802008DF8050000208DF8040004
:1031D0004720ADF806004FF6FF70ADF8080001205B
:1031E0009DE80E00FEF73AFE012211461046FFF759
:1031F00075F8012209491046FFF73CF80122002129
:103200001046FFF76BF8002205490120FFF732F85E
:1032100001210846FEF7ECFF0EBD0000513000080A
:103220008931000810B541F2873241F61F41022072
:10323000FEF7F8FF012200210220FFF74FF80022DD
:1032400004490220FFF716F801210220FEF7D0FF03
:1032500010BD0000993100081CB500208DF8040055
:1032600041F61F40ADF802000020ADF80000072035
:103270008DF8050000208DF80600DDE90012FFF74B
:103280004BF801210020FEF7B3FF19220021084668
:10329000FEF74AFD1CBD10B5002000F0A5F810BDDA
:1032A00010B5002000F066F910BD10B5012000F047
:1032B0009BF810BD10B5012000F05CF910BD10B5F1
:1032C000022000F091F810BD10B5022000F052F974
:1032D00010BD10B5032000F087F810BD10B5032015
:1032E00000F048F910BD10B5042000F07DF810BDC5
:1032F00010B5042000F03EF910BD000010B50446E2
:103300000F4800EB04112046FFF7BAF90D4850F8BA
:10331000341000222046FFF777FA0A4800EBC40079
:10332000012241682046FFF76FFA012240F2255141
:103330002046FFF7ADFA01212046FFF787F910BDBF
:10334000E0470008304800082DE9F04104460F46E8
:1033500090461E460025002240F225512046FFF7E8
:1033600097FAB04535DB00BF24E004EB44101D495B
:1033700001EB4000801C04EB44111A4A12F81110B2
:10338000405C785504EB4410114611F81000401CC5
:1033900004EB441102F8110004EB4410114611F83B
:1033A0001000402804DB002004EB441102F8110057
:1033B000681C85B2B5420CDA04EB4410094911F8D7
:1033C000100004EB4411074A02EB4101497888429E
:1033D000CBD1012240F225512046FFF759FAE8B23D
:1033E000BDE8F0810802002010B504462046FFF732
:1033F000ADFAC1B204EB4410244A02EB4000801C39
:1034000004EB4412214B03EB42025278815404EB4B
:103410004410194601EB40004078401C04EB441175
:103420001A4602EB4101487004EB4410114601EBCF
:1034300040004078402805DB002004EB441102EBFB
:103440004101487004EB4410104901EB4000407802
:1034500004EB44110D4A12F81110884215D104EB07
:103460004410114611F81000401C04EB441102F8FE
:10347000110004EB4410114611F81000402804DB41
:10348000002004EB441102F8110010BD08020020D6
:103490002DE9F04104460F4615464FF001080DB1E5
:1034A000402D02DD4FF000085FE0002240F226616F
:1034B0002046FFF7EDF900264FE0B95D04EB44101C
:1034C0002B4A02EB4000801C04EB4412284B03EB18
:1034D00042025278815404EB4410194601EB40003B
:1034E0004078401C04EB44111A4602EB410148703D
:1034F00004EB4410114601EB40004078402805DB06
:10350000002004EB441102EB4101487004EB44102D
:10351000174901EB4000407804EB4411144A12F8BB
:103520001110884217D104EB4410114611F8100015
:10353000401C04EB441102F8110004EB4410114646
:1035400011F81000402804DB002004EB441102F8BD
:1035500011004FF00008701CC6B2AE42ADDB012274
:1035600040F226612046FFF793F94046BDE8F0811E
:103570005203002010B5044604EB44101E4901EB31
:103580004000407804EB44111B4A12F811108842A5
:103590002BD004EB441002EB4000801C04EB4412DF
:1035A000154B13F81220815C2046FFF7D9F904EB84
:1035B0004410114911F81000401C04EB44110E4A4C
:1035C00002F8110004EB4410114611F810004028D5
:1035D00004DB002004EB441102F81100012240F248
:1035E00026612046FFF754F905E0002240F22661EB
:1035F0002046FFF74DF910BD5203002010B5FEF72D
:103600007DFA10BD10B504462046FEF77FFA10BDC6
:10361000FFF780FC00F090FB16E0FFF7EFFF00F0F3
:10362000AFFBFDF7E1FBFDF7E9FB00F013F800F05D
:1036300029F808231A4605490020FFF785FE0449AA
:1036400008700A20FDF718FFE7E7000000000020DF
:103650000800002010B509480078142808DD06226B
:1036600007490020FFF714FF00200449087004E018
:1036700002480078401C0149087010BD510100202B
:103680004B0100202DE9FE4F0024002500260020DC
:10369000009001900290FFF729FC0546FFF720FCFF
:1036A0000446284600F0D0FE8146204600F0CCFEBD
:1036B0008246494600F0E6FD8046204900F0D8FEEB
:1036C000074600F0A1FEC6B21D48007805282DDD92
:1036D000FB208DF80000200E8DF8010004F47F001F
:1036E000000C8DF8020004F47F40000A8DF80300FE
:1036F000E0B28DF80400280E8DF8050005F47F0077
:10370000000C8DF8060005F47F40000A8DF80700D4
:10371000E8B28DF808008DF809600B226946002098
:10372000FFF7B6FE00200649087004E00448007860
:10373000401C03490870BDE8FE8F00000000C8422D
:10374000520100202B49096841F01001294A1160FB
:103750001146096821F003011160114609681160E2
:1037600025494968244A516011464968516011460B
:103770004968516050B91146496821F47C11516083
:103780001146496841F4981151600FE01A4949689F
:1037900021F47411184A51601146496821F48031AE
:1037A00051601146496841F480115160124909681D
:1037B00041F08071104A116000BF0F49096801F0A3
:1037C00000710029F9D00C49496821F003010A4A27
:1037D00051601146496841F00201516000BF06493D
:1037E000496801F00C010829F9D10449044A116023
:1037F00070470000002002400010024000366E01B9
:103800000C0000202C49096841F010012A4A11607F
:103810001146096821F0030111601146096841F061
:103820000101116025494968244A516011464968DF
:10383000516011464968516050B91146496821F4F8
:103840007C1151601146496841F4F81151600FE054
:103850001A49496821F47411184A5160114649689F
:1038600021F4803151601146496841F4E011516002
:103870001249096841F08071104A116000BF0F4978
:10388000096801F000710029F9D00C49496821F05C
:1038900003010A4A51601146496841F00201516032
:1038A00000BF0649496801F00C010829F9D1044913
:1038B000044A1160704700000020024000100240DE
:1038C000005125020C0000202D49096841F010012B
:1038D0002B4A11601146096821F00301116011465D
:1038E000096841F00101116026494968254A516083
:1038F0001146496851601146496841F48061516040
:1039000050B91146496821F47C115160114649684B
:1039100041F4881151600FE01A49496821F474118B
:10392000184A51601146496821F4803151601146AE
:10393000496841F4201151601249096841F08071D1
:10394000104A116000BF0F49096801F00071002999
:10395000F9D00C49496821F003010A4A5160114627
:10396000496841F00201516000BF0649496801F011
:103970000C010829F9D10449044A1160704700007C
:103980000020024000100240006CDC020C0000200D
:103990002D49096841F010012B4A11601146096850
:1039A00021F0030111601146096841F00201116024
:1039B00026494968254A51601146496851601146B7
:1039C000496841F48061516050B91146496821F459
:1039D0007C1151601146496841F4A81151600FE013
:1039E0001A49496821F47411184A5160114649680E
:1039F00021F4803151601146496841F44011516011
:103A00001249096841F08071104A116000BF0F49E6
:103A1000096801F000710029F9D00C49496821F0CA
:103A200003010A4A51601146496841F002015160A0
:103A300000BF0649496801F00C010829F9D1044981
:103A4000044A11607047000000200240001002404C
:103A5000007E56030C0000202D49096841F010013A
:103A60002B4A11601146096821F0030111601146CB
:103A7000096841F00201116026494968254A5160F0
:103A80001146496851601146496841F480615160AE
:103A900050B91146496821F47C11516011464968BA
:103AA00041F4C81151600FE01A49496821F47411BA
:103AB000184A51601146496821F48031516011461D
:103AC000496841F4601151601249096841F0807100
:103AD000104A116000BF0F49096801F00071002908
:103AE000F9D00C49496821F003010A4A5160114696
:103AF000496841F00201516000BF0649496801F080
:103B00000C010829F9D10449044A116070470000EA
:103B100000200240001002400090D0030C00002062
:103B20002349096841F01001214A116011460968D2
:103B300021F0030111601146096841F00201116092
:103B40001C4949681B4A5160114649685160114639
:103B5000496841F4806151601146496821F47C1143
:103B600051601146496841F4E811516011460968F5
:103B700041F08071116000BF0E49096801F00071C9
:103B80000029F9D00B49496821F00301094A516025
:103B90001146496841F00201516000BF054949687A
:103BA00001F00C010829F9D10349044A116070475A
:103BB000002002400010024000A24A040C00002035
:103BC0000CB50020019000902948006840F4803036
:103BD0002749086000BF2648006800200090BDF813
:103BE0000400401C80B201909DF8000020B9BDF88F
:103BF0000400B0F5A06FEED11D48006800F400305D
:103C000010B10120009001E0002000909DF800001C
:103C100001282BD11748006840F0100015490860B2
:103C20000846006820F00300086008460068086045
:103C30000F4840680E49486008464068486008469A
:103C4000406848600846406820F003004860084625
:103C5000406840F00100486000BF0548406800F03F
:103C60000C000428F9D10448044908600CBD000088
:103C7000001002400020024000127A000C000020D8
:103C80000CB50020019000902748006840F001002A
:103C90002549086000BF2448006800F00200009039
:103CA000BDF80400401C80B201909DF8000020B9CE
:103CB000BDF80400B0F5A06FEDD11B48006800F01E
:103CC000020010B10120009001E0002000909DF85A
:103CD0000000012826D11548006840F01000134963
:103CE00008600846006820F0030008600846006885
:103CF00008600D4840680C494860084640684860C4
:103D00000846406848600846406820F00300486064
:103D100000BF0548406800F00C000028F9D10448B5
:103D2000044908600CBD0000001002400020024061
:103D300000127A000C00002010B500240622002199
:103D40000D48FEF7F9FF00BF12E00B48005D0B497C
:103D5000095D88420AD0062200210848FFF743F88F
:103D6000062200210448FEF7E7FF03E0601CC4B20E
:103D7000062CEADB00BF10BD4B01002045010020EE
:103D800010B5FEF7E7FE0648007810B90020054997
:103D900008700548007810B901200249087010BD6C
:103DA000EF000020ED000020EE00002021F0004296
:103DB000A2F16052B2F5801F01F0004328BFD2F19A
:103DC0007F6C0BD95FEA001C43EAC20242EB5070E1
:103DD00018BF704728BF20F001007047B2F5801F60
:103DE000BCBF184670474FEA410C1CF5001F02D2B9
:103DF000084600F004BC70B500F062F900000089CC
:103E0000FFF7F6BF4FF00040A0F5800070470000BC
:103E10002DE9C04130B4DFF8A0C23CEA111418BF4C
:103E20003CEA131400F0EC8081EA03051CEA11144B
:103E300044EAD57418BF1CEA131500F0C780A4EB40
:103E400005044FF0004545EAC12145EAC32341EA94
:103E5000505143EA525304F17F74994204F50034FF
:103E60004FEAC0204FEAC22208BF904200F09C8077
:103E70004FEA13650FF24016765D4FEA134506FBD5
:103E800005F7C7F1807706FB07F74FEAD737A7FB9F
:103E900003687642C8F58038A7FB06CE38BFA8F184
:103EA000010807FB08E64FF0000EA6FB028CE6FBBC
:103EB00003CEDCF1000CCEF1004E38BFAEF1010EA6
:103EC000A6FB0C584FF000074FF00005E6FB0E87ED
:103ED000A1FB08C6A0FB07CE16EB0E0645F10005B8
:103EE000E1FB076515F1E04E7EBFA4F580345FEA83
:103EF00046066D4116F1800745F100054FEA172788
:103F00004FEA066647EA0567A6F1DE46B6F1805F2E
:103F10004FEA15251FD9384624F0010C05EBC47172
:103F2000BCF1FE6F01EB0C1102D8F0BCBDE80081C2
:103F300024425CBF01F5801E9EEAC47F02D4F0BC1F
:103F4000BDE80081244238D4F0BCA1F1C041BDE8F5
:103F5000004100F003B94FEAD22242EA43524FEA4D
:103F6000D323A7FB02864FEAD02040EA415007FB4B
:103F700003661EEA0E0F4FEAD12105FB026658BF09
:103F8000A6EB0056B6EB00564FEA520E4EEAC37E41
:103F900018EB0E0E56EB530EBDD518EB02085E4122
:103FA0007F1C55F10005B6E74FF480154FF0000770
:103FB0004FF000064FF00008ADE7F0BC4FF00000F6
:103FC00001F1C04101F00041BDE8008111EA0C1F80
:103FD0000CEA131500D00CE013EA0C1F00F025804A
:103FE0004FF00000F0BC81EA030101F00041BDE8A0
:103FF0000081F0BCBDE8004181EA030100F0AEB8E9
:10400000F0BCBDE8004170B500F05AF8097EFC3EF6
:1040100000F007B881EA03014FF0000001F0004111
:10402000704781EA030100F099B8F0BCBDE8004197
:104030004FF0000021497047FFFDFBF9F7F5F4F25E
:10404000F0EEEDEBE9E8E6E4E3E1E0DEDDDBDAD833
:10405000D7D5D4D3D1D0CFCDCCCBCAC8C7C6C5C491
:10406000C2C1C0BFBEBDBCBBBAB9B8B7B6B5B4B3A8
:10407000B2B1B0AFAEADACABAAA9A8A8A7A6A5A493
:10408000A3A3A2A1A09F9F9E9D9C9C9B9A99999857
:104090009797969595949393929191908F8F8E8EFA
:1040A0008D8C8C8B8B8A8989888887878685858487
:1040B00084838382828181800000FF070000F87F73
:1040C0000EF1020E2EF0030E5EF8046B364205D49C
:1040D000012A43EB030515F5001F12D8012841EB17
:1040E000010C1CF5001F0CD80ED14FEAD17C15F540
:1040F000001F0CEB4C0C0CF1020C08BF4CEBD37CFA
:1041000004E04FF0080C01E04FEAD37C0CEB4C05C7
:1041100026FA05F606F00706B6F1040C06D20EEBF9
:10412000860CBDE870404CF0010C6047DFE80CF0F5
:10413000090B02024FF000414FF00000A1F50021F1
:1041400070BD19461046012851EB010418BFD4F583
:10415000001484BF002001F0004170BD0808A0F5E4
:1041600000114FEA3101704743004FEAD30C4FEA88
:104170003C0C43401FBF40070CF1605113F0FE4F51
:1041800070471CF0006F03D100200CF00041704715
:104190000CF0004343EA507010B540EACC0000F048
:1041A000E8F900BF000000924FEA0001FFF7D6BF18
:1041B0004FF000414FF00000A1F5002170470000D2
:1041C00090EA010F48BF81F0004100F12E82421AAF
:1041D0003CBF801A89184FEAD0524FF07F4C1CEA3E
:1041E000410FA2EBD15318BF9CEA026F00F03B8055
:1041F0004FF0004C4CEA00204CEA012121FA03FC6C
:1042000010EB0C0C1ED202F1FF325FEA1C2040EBD7
:10421000C25038BF70471CF07F0F4FEA400C18BFE8
:10422000BCF17F4F38BF7047C3F12003994008BFEE
:1042300020F00100BCF17F4F38BF7047A0F1C040B3
:1042400000F0DDB94FEA3C00000A40EBC25028BF45
:104250001CF0FF0F4FEA400CE6D018BFBCF17F4FB7
:1042600038BF7047EAE79CEA026F05D010EA5C0F9E
:1042700008BF00F00040704710B500F07AF900BFA9
:1042800064FBBE3E4FF47F0C1CEAD0121EBF1CEA3A
:10429000D11392EA0C0F93EA0C0F00F0858090EA9C
:1042A000010F48BF42F4807240F4000C41F400005A
:1042B0002CF07F4120F07F4000B58142A2EB030249
:1042C0000FF2081CACEB504EC0F100009EF800E06D
:1042D0004FEA4E0E00FB0EFC38BF49004FEA2C1C83
:1042E00002F5FA020CFB0EF34FEACE1E4FEA112C38
:1042F0004FEAC1210EEB635E42EB22420EFB0CFC47
:104300004FEA1C5300FB03114FEA112C4FEA013115
:104310000EFB0CFC4FEADC4C00FB0C11C14228BF29
:1043200009184CEB03335DF804EB10EB410143EB50
:10433000C250B2F57C0F38BF704729D512F0F00F8C
:104340001CBF00F1C04000F0004070470081828334
:104350008485868788898B8C8D8E8F919293959694
:1043600097999A9C9D9FA0A2A3A5A7A8AAACAEB01E
:10437000B2B3B5B7B9BCBEC0C2C5C7C9CCCED1D423
:10438000D7D9DCDFE2E6E9ECF0F3F7FAFE00000053
:104390004FEA400C0CF1807CBCF17E4F28BF704787
:1043A000B0F1C04000F02BB990EA010F0CEAD11334
:1043B00048BF42F48072624538BF634507D213F4A8
:1043C0007F0F16D080EA010000F00040704710B562
:1043D00000F0CFF8097EFC3E00F005B880EA01004D
:1043E00000F00040704780EA010000F0004000F05B
:1043F00006B912F47F0F04BF0248704780EA01003B
:1044000000F0FDB80000C07FC10DD1F19E0206DBB7
:104410004FEA002343F0004323FA02F070470042C2
:1044200007D54FEA4001B1F1FE4F02D24FF0000034
:10443000704710B500F09DF8499224800020704725
:104440006FEA200070470000B0FA80F310FA03F220
:10445000C3F19D030AD0D90501EB1220530638BFE2
:10446000704700F1010008BF20F001007047000014
:104470004FF47F0C1CEAD0121EBF1CEAD11392EA43
:104480000C0F93EA0C0F00F0478090EA010F48BF31
:1044900042F480724FF0004C4CEA00204CEA0121BB
:1044A00002EB0302A0FB0113A2F50002002918BFD2
:1044B00043F001035B0028BF4FEA330342EB224283
:1044C0005FEA132C4CEBC2502EBFBCEB436FB2F52E
:1044D0007C0F70474FEA036CBCF1004F08BF20F01F
:1044E0000100B2F57C0F38BF70470BD582F0FF0298
:1044F00012F5803FC8BF704700F1C040D8BF00F040
:104500000040704700F5000C5FEA4C0C48BF704754
:10451000B0F1C04000F073B890EA010F0CEAD1137B
:1045200048BF42F48072624538BF634504D280EAD6
:10453000010000F00040704710B500F01AF800BF0D
:104540008900013E00F007B800F009B85FEA410CAD
:104550005FEA1C6C08D080EA010000F050B85FEA06
:10456000400C5FEA1C6CF6D14FF00040A0F58000D3
:1045700070470EF1020E2EF0030E5EF8044B24423B
:1045800004D44FEA4102B2F17F4F11D84FEA400301
:10459000B3F17F4F0CD80ED14FEAD07CB2F17F4FF0
:1045A0000CEB4C0C0CF1020C08BF4CEBD17C04E082
:1045B0004FF0080C01E04FEAD17C0CEB4C0324FADD
:1045C00003F404F00704B4F1040C06D20EEB840CDF
:1045D000BDE810404CF0010C6047DFE80CF0070824
:1045E00002024FF00040A0F5800010BD08464200D6
:1045F00018BFD2F1807288BF00F0004010BDFF21CB
:1046000041EAD050C005704780F0004090EA010FA9
:104610007FF5DDAD81F0004100F007B890EA010FB1
:1046200048BF81F000413FF5D2AD421A04D882F074
:104630000042A0EB020011444FEAD0524FF07F4CF1
:104640001CEA410FA2EBD15318BF9CEA026F4AD07B
:104650004FF0004C4CEA00204CEA012121FA03FC07
:10466000B0EB0C0C0FD412F0FE0F36D05FEA4C000A
:104670001DD5001240EBC25038BF70471CF03F0FF1
:1046800018BF70470BE0A2F101025FEA1C2040EB6B
:10469000C25038BF70471CF07F0F18BF7047C3F17E
:1046A0002003994014BF401E20F00100704780088D
:1046B0004FEA122308BF7047B0FA80FCA2EB0C024D
:1046C000CCF1280C60FA0CF093EA122F04BF00EB37
:1046D000C25070474FEAC3707047130A5FEADC109C
:1046E00008BF7047F6E79CEA026F04D010EA5C0F3F
:1046F00008BF0020704710B5FFF73BFF40DFF63ED4
:1047000081F0004070470000453700080538000878
:10471000C938000891390008593A0008213B0008BF
:1047200000080140000C014000100140001401404D
:1047300000180140001C01400020014000380140E9
:104740000044004000480040004C00400050004041
:10475000002C014000000040000400400008004020
:10476000000C0040001000400014004000340140E4
:104770000024014000280140003C014018000001D5
:104780000301100304000301480220000301480054
:10479000008003011800000203010400000403016B
:1047A00028000100030100000200030100020100D3
:1047B000030100001000030118002000030118008D
:1047C00040000301180080000301100004000301F1
:1047D00000000000EC00002001000000ED000020BF
:1047E000004B000000000000000000000C00000072
:1047F00000C2010000000000000000000C000000EA
:104800008025000000000000000000000C000000F7
:10481000004B000000000000000000000C00000041
:10482000004B000000000000000000000C00000031
:1048300097320008A1320008AB320008B5320008F8
:10484000BF320008C9320008D3320008DD32000848
:10485000E7320008F1320008250303011D010301BE
:104860001C0102011201010188480008000000201B
:10487000540100006C010008CC48000854010020DD
:10488000AC070000C8010008011868090102030410
:10489000060708090C05C0020406081A0101413286
:1048A0000222EE1520010A0A32035AEF0C32061AD0
:1048B000F00C11190C091946293F11294912072931
:0C48C000282A070D950314060C000000C8
:0400000508000131BD
:00000001FF
